{
  "contractName": "PartRegistry",
  "abi": [
    {
      "anonymous": false,
      "inputs": [
        {
          "indexed": true,
          "internalType": "uint256",
          "name": "id",
          "type": "uint256"
        },
        {
          "indexed": false,
          "internalType": "uint256",
          "name": "price",
          "type": "uint256"
        }
      ],
      "name": "PartListed",
      "type": "event"
    },
    {
      "anonymous": false,
      "inputs": [
        {
          "indexed": true,
          "internalType": "uint256",
          "name": "id",
          "type": "uint256"
        },
        {
          "indexed": true,
          "internalType": "address",
          "name": "owner",
          "type": "address"
        }
      ],
      "name": "PartMinted",
      "type": "event"
    },
    {
      "anonymous": false,
      "inputs": [
        {
          "indexed": true,
          "internalType": "uint256",
          "name": "id",
          "type": "uint256"
        },
        {
          "indexed": true,
          "internalType": "address",
          "name": "from",
          "type": "address"
        },
        {
          "indexed": true,
          "internalType": "address",
          "name": "to",
          "type": "address"
        }
      ],
      "name": "PartTransferred",
      "type": "event"
    },
    {
      "anonymous": false,
      "inputs": [
        {
          "indexed": true,
          "internalType": "uint256",
          "name": "id",
          "type": "uint256"
        }
      ],
      "name": "PartUnlisted",
      "type": "event"
    },
    {
      "inputs": [
        {
          "internalType": "uint256",
          "name": "",
          "type": "uint256"
        }
      ],
      "name": "parts",
      "outputs": [
        {
          "internalType": "uint256",
          "name": "id",
          "type": "uint256"
        },
        {
          "internalType": "address",
          "name": "owner",
          "type": "address"
        },
        {
          "internalType": "string",
          "name": "maintenanceCID",
          "type": "string"
        },
        {
          "internalType": "string",
          "name": "certCID",
          "type": "string"
        },
        {
          "internalType": "bool",
          "name": "forSale",
          "type": "bool"
        }
      ],
      "stateMutability": "view",
      "type": "function",
      "constant": true
    },
    {
      "inputs": [
        {
          "internalType": "uint256",
          "name": "id",
          "type": "uint256"
        },
        {
          "internalType": "string",
          "name": "maintenanceCID",
          "type": "string"
        },
        {
          "internalType": "string",
          "name": "certCID",
          "type": "string"
        }
      ],
      "name": "mintPart",
      "outputs": [],
      "stateMutability": "nonpayable",
      "type": "function"
    },
    {
      "inputs": [
        {
          "internalType": "uint256",
          "name": "id",
          "type": "uint256"
        },
        {
          "internalType": "address",
          "name": "to",
          "type": "address"
        }
      ],
      "name": "transferPart",
      "outputs": [],
      "stateMutability": "nonpayable",
      "type": "function"
    },
    {
      "inputs": [
        {
          "internalType": "uint256",
          "name": "id",
          "type": "uint256"
        },
        {
          "internalType": "uint256",
          "name": "price",
          "type": "uint256"
        }
      ],
      "name": "listForSale",
      "outputs": [],
      "stateMutability": "nonpayable",
      "type": "function"
    },
    {
      "inputs": [
        {
          "internalType": "uint256",
          "name": "id",
          "type": "uint256"
        }
      ],
      "name": "unlist",
      "outputs": [],
      "stateMutability": "nonpayable",
      "type": "function"
    }
  ],
  "bytecode": "0x608060405234801561001057600080fd5b506108a0806100206000396000f3fe608060405234801561001057600080fd5b50600436106100575760003560e01c80633dfb9c341461005c57806346e588e914610071578063bf5a4dd314610084578063c9eb466214610097578063e80d7fec146100c4575b600080fd5b61006f61006a366004610583565b6100d7565b005b61006f61007f3660046105f0565b610209565b61006f61009236600461062c565b610295565b6100aa6100a536600461062c565b61030a565b6040516100bb95949392919061068b565b60405180910390f35b61006f6100d23660046106dc565b610456565b6000838152602081905260409020600101546001600160a01b0316156101355760405162461bcd60e51b815260206004820152600e60248201526d416c72656164792065786973747360901b60448201526064015b60405180910390fd5b6040805160a08101825284815233602080830191825282840186815260608401869052600060808501819052888152918290529390208251815590516001820180546001600160a01b0319166001600160a01b03909216919091179055915190919060028201906101a69082610787565b50606082015160038201906101bb9082610787565b50608091909101516004909101805460ff1916911515919091179055604051339084907fb6a61e20c92b755f3876d49bc44c64596d0005ed6e0614e120581c13b5cc66b190600090a3505050565b600082815260208190526040902060018101546001600160a01b031633146102435760405162461bcd60e51b815260040161012c90610847565b6001810180546001600160a01b0319166001600160a01b038416908117909155604051339085907f910c797c883fd7b660f34a2a8fae5f765e788aa38362ba195127bd25ef6e9cbc90600090a4505050565b600081815260208190526040902060018101546001600160a01b031633146102cf5760405162461bcd60e51b815260040161012c90610847565b60048101805460ff1916905560405182907fe84123e5d2c08f0d7de7c62856ae5e318c9cd8a9bb22687a831f772a36f5930290600090a25050565b60006020819052908152604090208054600182015460028301805492936001600160a01b039092169261033c906106fe565b80601f0160208091040260200160405190810160405280929190818152602001828054610368906106fe565b80156103b55780601f1061038a576101008083540402835291602001916103b5565b820191906000526020600020905b81548152906001019060200180831161039857829003601f168201915b5050505050908060030180546103ca906106fe565b80601f01602080910402602001604051908101604052809291908181526020018280546103f6906106fe565b80156104435780601f1061041857610100808354040283529160200191610443565b820191906000526020600020905b81548152906001019060200180831161042657829003601f168201915b5050506004909301549192505060ff1685565b600082815260208190526040902060018101546001600160a01b031633146104905760405162461bcd60e51b815260040161012c90610847565b60048101805460ff1916600117905560405183907fdeb5e120ccac3de9aa0f24bec02c69a4a1dc33858a086beed9468a9b1474bba2906104d39085815260200190565b60405180910390a2505050565b634e487b7160e01b600052604160045260246000fd5b600082601f83011261050757600080fd5b813567ffffffffffffffff80821115610522576105226104e0565b604051601f8301601f19908116603f0116810190828211818310171561054a5761054a6104e0565b8160405283815286602085880101111561056357600080fd5b836020870160208301376000602085830101528094505050505092915050565b60008060006060848603121561059857600080fd5b83359250602084013567ffffffffffffffff808211156105b757600080fd5b6105c3878388016104f6565b935060408601359150808211156105d957600080fd5b506105e6868287016104f6565b9150509250925092565b6000806040838503121561060357600080fd5b8235915060208301356001600160a01b038116811461062157600080fd5b809150509250929050565b60006020828403121561063e57600080fd5b5035919050565b6000815180845260005b8181101561066b5760208185018101518683018201520161064f565b506000602082860101526020601f19601f83011685010191505092915050565b8581526001600160a01b038516602082015260a0604082018190526000906106b590830186610645565b82810360608401526106c78186610645565b91505082151560808301529695505050505050565b600080604083850312156106ef57600080fd5b50508035926020909101359150565b600181811c9082168061071257607f821691505b60208210810361073257634e487b7160e01b600052602260045260246000fd5b50919050565b601f82111561078257600081815260208120601f850160051c8101602086101561075f5750805b601f850160051c820191505b8181101561077e5782815560010161076b565b5050505b505050565b815167ffffffffffffffff8111156107a1576107a16104e0565b6107b5816107af84546106fe565b84610738565b602080601f8311600181146107ea57600084156107d25750858301515b600019600386901b1c1916600185901b17855561077e565b600085815260208120601f198616915b82811015610819578886015182559484019460019091019084016107fa565b50858210156108375787850151600019600388901b60f8161c191681555b5050505050600190811b01905550565b6020808252600990820152682737ba1037bbb732b960b91b60408201526060019056fea2646970667358221220fa262c8eaf71ff3aea33ed393dfee111dbcf91ecf55d8394cda02dcd789913d664736f6c63430008130033",
  "immutableReferences": {},
  "source": "// SPDX-License-Identifier: MIT\r\npragma solidity ^0.8.19;\r\n\r\ncontract PartRegistry {\r\n    struct Part {\r\n        uint    id;\r\n        address owner;\r\n        string  maintenanceCID;\r\n        string  certCID;\r\n        bool    forSale;\r\n    }\r\n\r\n    mapping(uint => Part) public parts;\r\n\r\n    event PartMinted(uint indexed id, address indexed owner);\r\n    event PartTransferred(uint indexed id, address indexed from, address indexed to);\r\n    event PartListed(uint indexed id, uint price);\r\n    event PartUnlisted(uint indexed id);\r\n\r\n    function mintPart(\r\n        uint id,\r\n        string memory maintenanceCID,\r\n        string memory certCID\r\n    ) public {\r\n        require(parts[id].owner == address(0), \"Already exists\");\r\n        parts[id] = Part(id, msg.sender, maintenanceCID, certCID, false);\r\n        emit PartMinted(id, msg.sender);\r\n    }\r\n\r\n    function transferPart(uint id, address to) public {\r\n        Part storage p = parts[id];\r\n        require(p.owner == msg.sender, \"Not owner\");\r\n        p.owner = to;\r\n        emit PartTransferred(id, msg.sender, to);\r\n    }\r\n\r\n    function listForSale(uint id, uint price) public {\r\n        Part storage p = parts[id];\r\n        require(p.owner == msg.sender, \"Not owner\");\r\n        p.forSale = true;\r\n        emit PartListed(id, price);\r\n    }\r\n\r\n    function unlist(uint id) public {\r\n        Part storage p = parts[id];\r\n        require(p.owner == msg.sender, \"Not owner\");\r\n        p.forSale = false;\r\n        emit PartUnlisted(id);\r\n    }\r\n}\r\n",
  "sourcePath": "C:\\Users\\dhruv\\Desktop\\Nimbus\\Nimbus\\aerospace-supply\\contracts\\PartRegistry.sol",
  "compiler": {
    "name": "solc",
    "version": "0.8.19+commit.7dd6d404.Emscripten.clang"
  },
  "schemaVersion": "3.4.16",
  "updatedAt": "2025-04-27T16:45:35.905Z",
  "networkType": "ethereum",
  "devdoc": {
    "kind": "dev",
    "methods": {},
    "version": 1
  },
  "userdoc": {
    "kind": "user",
    "methods": {},
    "version": 1
  }
}