{
  "contractName": "PartRegistry",
  "abi": [
    {
      "anonymous": false,
      "inputs": [
        {
          "indexed": true,
          "internalType": "uint256",
          "name": "id",
          "type": "uint256"
        },
        {
          "indexed": false,
          "internalType": "uint256",
          "name": "timestamp",
          "type": "uint256"
        },
        {
          "indexed": false,
          "internalType": "string",
          "name": "description",
          "type": "string"
        }
      ],
      "name": "MaintenanceAdded",
      "type": "event"
    },
    {
      "anonymous": false,
      "inputs": [
        {
          "indexed": true,
          "internalType": "uint256",
          "name": "id",
          "type": "uint256"
        },
        {
          "indexed": false,
          "internalType": "string",
          "name": "previousOwner",
          "type": "string"
        },
        {
          "indexed": false,
          "internalType": "string",
          "name": "newOwner",
          "type": "string"
        }
      ],
      "name": "OwnershipTransferred",
      "type": "event"
    },
    {
      "anonymous": false,
      "inputs": [
        {
          "indexed": true,
          "internalType": "uint256",
          "name": "id",
          "type": "uint256"
        },
        {
          "indexed": false,
          "internalType": "string",
          "name": "owner",
          "type": "string"
        },
        {
          "indexed": false,
          "internalType": "string",
          "name": "serialId",
          "type": "string"
        },
        {
          "indexed": false,
          "internalType": "string",
          "name": "partDescription",
          "type": "string"
        },
        {
          "indexed": false,
          "internalType": "string",
          "name": "manufacturingCompany",
          "type": "string"
        }
      ],
      "name": "PartCreated",
      "type": "event"
    },
    {
      "anonymous": false,
      "inputs": [
        {
          "indexed": true,
          "internalType": "uint256",
          "name": "id",
          "type": "uint256"
        },
        {
          "indexed": false,
          "internalType": "uint256",
          "name": "price",
          "type": "uint256"
        }
      ],
      "name": "PartListed",
      "type": "event"
    },
    {
      "anonymous": false,
      "inputs": [
        {
          "indexed": true,
          "internalType": "uint256",
          "name": "id",
          "type": "uint256"
        }
      ],
      "name": "PartUnlisted",
      "type": "event"
    },
    {
      "inputs": [
        {
          "internalType": "string",
          "name": "",
          "type": "string"
        },
        {
          "internalType": "uint256",
          "name": "",
          "type": "uint256"
        }
      ],
      "name": "ownerParts",
      "outputs": [
        {
          "internalType": "uint256",
          "name": "",
          "type": "uint256"
        }
      ],
      "stateMutability": "view",
      "type": "function",
      "constant": true
    },
    {
      "inputs": [
        {
          "internalType": "uint256",
          "name": "",
          "type": "uint256"
        }
      ],
      "name": "parts",
      "outputs": [
        {
          "internalType": "uint256",
          "name": "id",
          "type": "uint256"
        },
        {
          "internalType": "string",
          "name": "owner",
          "type": "string"
        },
        {
          "internalType": "string",
          "name": "serialId",
          "type": "string"
        },
        {
          "internalType": "string",
          "name": "partDescription",
          "type": "string"
        },
        {
          "internalType": "string",
          "name": "manufacturingCompany",
          "type": "string"
        },
        {
          "internalType": "uint256",
          "name": "manufacturingDate",
          "type": "uint256"
        },
        {
          "internalType": "bool",
          "name": "forSale",
          "type": "bool"
        }
      ],
      "stateMutability": "view",
      "type": "function",
      "constant": true
    },
    {
      "inputs": [
        {
          "internalType": "string",
          "name": "",
          "type": "string"
        }
      ],
      "name": "serialToPartId",
      "outputs": [
        {
          "internalType": "uint256",
          "name": "",
          "type": "uint256"
        }
      ],
      "stateMutability": "view",
      "type": "function",
      "constant": true
    },
    {
      "inputs": [],
      "name": "totalParts",
      "outputs": [
        {
          "internalType": "uint256",
          "name": "",
          "type": "uint256"
        }
      ],
      "stateMutability": "view",
      "type": "function",
      "constant": true
    },
    {
      "inputs": [
        {
          "internalType": "string",
          "name": "ownerName",
          "type": "string"
        },
        {
          "internalType": "string",
          "name": "serialId",
          "type": "string"
        },
        {
          "internalType": "string",
          "name": "partDescription",
          "type": "string"
        },
        {
          "internalType": "string",
          "name": "manufacturingCompany",
          "type": "string"
        },
        {
          "internalType": "uint256",
          "name": "manufacturingDate",
          "type": "uint256"
        },
        {
          "internalType": "string",
          "name": "initialMaintenanceCID",
          "type": "string"
        },
        {
          "internalType": "string",
          "name": "initialDescription",
          "type": "string"
        }
      ],
      "name": "createPart",
      "outputs": [],
      "stateMutability": "nonpayable",
      "type": "function"
    },
    {
      "inputs": [
        {
          "internalType": "string",
          "name": "serialId",
          "type": "string"
        },
        {
          "internalType": "uint256",
          "name": "price",
          "type": "uint256"
        }
      ],
      "name": "listForSaleBySerial",
      "outputs": [],
      "stateMutability": "nonpayable",
      "type": "function"
    },
    {
      "inputs": [
        {
          "internalType": "string",
          "name": "serialId",
          "type": "string"
        }
      ],
      "name": "unlistFromSaleBySerial",
      "outputs": [],
      "stateMutability": "nonpayable",
      "type": "function"
    },
    {
      "inputs": [
        {
          "internalType": "string",
          "name": "ownerName",
          "type": "string"
        }
      ],
      "name": "getPartsByOwner",
      "outputs": [
        {
          "internalType": "uint256[]",
          "name": "",
          "type": "uint256[]"
        }
      ],
      "stateMutability": "view",
      "type": "function",
      "constant": true
    },
    {
      "inputs": [
        {
          "internalType": "string",
          "name": "company",
          "type": "string"
        }
      ],
      "name": "getPartsByManufacturingCompany",
      "outputs": [
        {
          "internalType": "uint256[]",
          "name": "",
          "type": "uint256[]"
        }
      ],
      "stateMutability": "view",
      "type": "function",
      "constant": true
    },
    {
      "inputs": [
        {
          "internalType": "uint256",
          "name": "id",
          "type": "uint256"
        },
        {
          "internalType": "string",
          "name": "description",
          "type": "string"
        },
        {
          "internalType": "string",
          "name": "maintenanceCID",
          "type": "string"
        }
      ],
      "name": "addMaintenanceRecord",
      "outputs": [],
      "stateMutability": "nonpayable",
      "type": "function"
    },
    {
      "inputs": [
        {
          "internalType": "uint256",
          "name": "id",
          "type": "uint256"
        },
        {
          "internalType": "string",
          "name": "newOwner",
          "type": "string"
        }
      ],
      "name": "transferOwnership",
      "outputs": [],
      "stateMutability": "nonpayable",
      "type": "function"
    },
    {
      "inputs": [
        {
          "internalType": "uint256",
          "name": "id",
          "type": "uint256"
        },
        {
          "internalType": "uint256",
          "name": "price",
          "type": "uint256"
        }
      ],
      "name": "listForSale",
      "outputs": [],
      "stateMutability": "nonpayable",
      "type": "function"
    },
    {
      "inputs": [
        {
          "internalType": "uint256",
          "name": "id",
          "type": "uint256"
        }
      ],
      "name": "unlistFromSale",
      "outputs": [],
      "stateMutability": "nonpayable",
      "type": "function"
    },
    {
      "inputs": [
        {
          "internalType": "uint256",
          "name": "id",
          "type": "uint256"
        }
      ],
      "name": "getMaintenanceHistoryCount",
      "outputs": [
        {
          "internalType": "uint256",
          "name": "",
          "type": "uint256"
        }
      ],
      "stateMutability": "view",
      "type": "function",
      "constant": true
    },
    {
      "inputs": [
        {
          "internalType": "uint256",
          "name": "id",
          "type": "uint256"
        },
        {
          "internalType": "uint256",
          "name": "index",
          "type": "uint256"
        }
      ],
      "name": "getMaintenanceRecord",
      "outputs": [
        {
          "internalType": "uint256",
          "name": "timestamp",
          "type": "uint256"
        },
        {
          "internalType": "string",
          "name": "description",
          "type": "string"
        },
        {
          "internalType": "string",
          "name": "maintenanceCID",
          "type": "string"
        }
      ],
      "stateMutability": "view",
      "type": "function",
      "constant": true
    },
    {
      "inputs": [
        {
          "internalType": "uint256",
          "name": "id",
          "type": "uint256"
        }
      ],
      "name": "getPartDetails",
      "outputs": [
        {
          "internalType": "string",
          "name": "owner",
          "type": "string"
        },
        {
          "internalType": "string",
          "name": "serialId",
          "type": "string"
        },
        {
          "internalType": "string",
          "name": "partDescription",
          "type": "string"
        },
        {
          "internalType": "string",
          "name": "manufacturingCompany",
          "type": "string"
        },
        {
          "internalType": "uint256",
          "name": "manufacturingDate",
          "type": "uint256"
        },
        {
          "internalType": "bool",
          "name": "forSale",
          "type": "bool"
        },
        {
          "internalType": "uint256",
          "name": "maintenanceCount",
          "type": "uint256"
        },
        {
          "internalType": "string",
          "name": "latestMaintenanceCID",
          "type": "string"
        },
        {
          "internalType": "string",
          "name": "latestMaintenanceDescription",
          "type": "string"
        }
      ],
      "stateMutability": "view",
      "type": "function",
      "constant": true
    }
  ],
  "bytecode": "0x608060405234801561001057600080fd5b50611ab2806100206000396000f3fe608060405234801561001057600080fd5b50600436106101005760003560e01c8063c78dcb6111610097578063ee8167bc11610066578063ee8167bc1461025e578063f9f5c73914610267578063fa0245491461027a578063fa5675541461028d57600080fd5b8063c78dcb61146101d8578063c9eb4662146101fa578063dfea885814610220578063e80d7fec1461024b57600080fd5b80637221bb01116100d35780637221bb011461017e57806380f0e0cf146101915780638d57ba85146101b2578063ba18e9cd146101c557600080fd5b80632fb71bdb1461010557806342673ed91461013657806343ee5aca146101565780636b4b5df41461016b575b600080fd5b6101186101133660046112bb565b6102b0565b60405161012d99989796959493929190611324565b60405180910390f35b610149610144366004611464565b6106c1565b60405161012d91906114a1565b610169610164366004611464565b610834565b005b6101696101793660046114e5565b61089b565b61016961018c3660046112bb565b610913565b6101a461019f3660046114e5565b6109a2565b60405190815260200161012d565b6101496101c0366004611464565b6109e2565b6101696101d336600461152a565b610a52565b6101eb6101e636600461162a565b610c46565b60405161012d9392919061164c565b61020d6102083660046112bb565b610db6565b60405161012d9796959493929190611681565b6101a461022e366004611464565b805160208183018101805160028252928201919093012091525481565b61016961025936600461162a565b611015565b6101a460035481565b6101696102753660046116f0565b6110ac565b61016961028836600461175d565b61115d565b6101a461029b3660046112bb565b60009081526020819052604090206006015490565b600081815260208181526040808320600681015482518085018452858152835194850190935284845260609485948594859492938493849387938493918215610444576000600685016103046001866117ba565b81548110610314576103146117d3565b90600052602060002090600302019050806002018054610333906117e9565b80601f016020809104026020016040519081016040528092919081815260200182805461035f906117e9565b80156103ac5780601f10610381576101008083540402835291602001916103ac565b820191906000526020600020905b81548152906001019060200180831161038f57829003601f168201915b505050505092508060010180546103c2906117e9565b80601f01602080910402602001604051908101604052809291908181526020018280546103ee906117e9565b801561043b5780601f106104105761010080835404028352916020019161043b565b820191906000526020600020905b81548152906001019060200180831161041e57829003601f168201915b50505050509150505b8360010184600201856003018660040187600501548860070160009054906101000a900460ff1688888888805461047a906117e9565b80601f01602080910402602001604051908101604052809291908181526020018280546104a6906117e9565b80156104f35780601f106104c8576101008083540402835291602001916104f3565b820191906000526020600020905b8154815290600101906020018083116104d657829003601f168201915b50505050509850878054610506906117e9565b80601f0160208091040260200160405190810160405280929190818152602001828054610532906117e9565b801561057f5780601f106105545761010080835404028352916020019161057f565b820191906000526020600020905b81548152906001019060200180831161056257829003601f168201915b50505050509750868054610592906117e9565b80601f01602080910402602001604051908101604052809291908181526020018280546105be906117e9565b801561060b5780601f106105e05761010080835404028352916020019161060b565b820191906000526020600020905b8154815290600101906020018083116105ee57829003601f168201915b5050505050965085805461061e906117e9565b80601f016020809104026020016040519081016040528092919081815260200182805461064a906117e9565b80156106975780601f1061066c57610100808354040283529160200191610697565b820191906000526020600020905b81548152906001019060200180831161067a57829003601f168201915b505050505095509c509c509c509c509c509c509c509c509c50505050509193959799909294969850565b6060600060035467ffffffffffffffff8111156106e0576106e06113c1565b604051908082528060200260200182016040528015610709578160200160208202803683370190505b5090506000805b60035481101561078f5784805190602001206000808381526020019081526020016000206004016040516107449190611823565b60405180910390200361077d5780838381518110610764576107646117d3565b60209081029190910101528161077981611899565b9250505b8061078781611899565b915050610710565b5060008167ffffffffffffffff8111156107ab576107ab6113c1565b6040519080825280602002602001820160405280156107d4578160200160208202803683370190505b50905060005b8281101561082b578381815181106107f4576107f46117d3565b602002602001015182828151811061080e5761080e6117d3565b60209081029190910101528061082381611899565b9150506107da565b50949350505050565b600060028260405161084691906118b2565b908152604080516020928190038301812054600081815293849052918320600701805460ff1916905590925082917fe84123e5d2c08f0d7de7c62856ae5e318c9cd8a9bb22687a831f772a36f5930291a25050565b60006002836040516108ad91906118b2565b90815260408051918290036020908101832054600081815280835292909220600701805460ff1916600117905584835290925082917fdeb5e120ccac3de9aa0f24bec02c69a4a1dc33858a086beed9468a9b1474bba291015b60405180910390a2505050565b6000818152602081905260409020600781015460ff166109675760405162461bcd60e51b815260206004820152600a602482015269139bdd081b1a5cdd195960b21b60448201526064015b60405180910390fd5b60078101805460ff1916905560405182907fe84123e5d2c08f0d7de7c62856ae5e318c9cd8a9bb22687a831f772a36f5930290600090a25050565b815160208184018101805160018252928201918501919091209190528054829081106109cd57600080fd5b90600052602060002001600091509150505481565b60606001826040516109f491906118b2565b9081526040805191829003602090810183208054808302850183019093528284529190830182828015610a4657602002820191906000526020600020905b815481526020019060010190808311610a32575b50505050509050919050565b600286604051610a6291906118b2565b908152602001604051809103902054600014610ac05760405162461bcd60e51b815260206004820152601860248201527f53657269616c20494420616c7265616479206578697374730000000000000000604482015260640161095e565b6003805460009182610ad183611899565b91905055905080600288604051610ae891906118b2565b9081526040805160209281900383019020929092556000838152908190522081815560018101610b188a8261191d565b5060028101610b27898261191d565b5060038101610b36888261191d565b5060048101610b45878261191d565b506005810185905560078101805460ff19169055604051600190610b6a908b906118b2565b908152604051602091819003820190208054600181018255600091825291902001829055835115610bfd57604080516060810182524281526020808201868152928201879052600684018054600181810183556000928352929091208351600390920201908155925191929190820190610be4908261191d565b5060408201516002820190610bf9908261191d565b5050505b817f3fe18d5a91bf5cda125b715f0947fc884bd7e0df0741ac5e611e91db30e3c9548a8a8a8a604051610c3394939291906119dd565b60405180910390a2505050505050505050565b600060608060008060008781526020019081526020016000206006018581548110610c7357610c736117d3565b9060005260206000209060030201905080600001548160010182600201818054610c9c906117e9565b80601f0160208091040260200160405190810160405280929190818152602001828054610cc8906117e9565b8015610d155780601f10610cea57610100808354040283529160200191610d15565b820191906000526020600020905b815481529060010190602001808311610cf857829003601f168201915b50505050509150808054610d28906117e9565b80601f0160208091040260200160405190810160405280929190818152602001828054610d54906117e9565b8015610da15780601f10610d7657610100808354040283529160200191610da1565b820191906000526020600020905b815481529060010190602001808311610d8457829003601f168201915b50505050509050935093509350509250925092565b60006020819052908152604090208054600182018054919291610dd8906117e9565b80601f0160208091040260200160405190810160405280929190818152602001828054610e04906117e9565b8015610e515780601f10610e2657610100808354040283529160200191610e51565b820191906000526020600020905b815481529060010190602001808311610e3457829003601f168201915b505050505090806002018054610e66906117e9565b80601f0160208091040260200160405190810160405280929190818152602001828054610e92906117e9565b8015610edf5780601f10610eb457610100808354040283529160200191610edf565b820191906000526020600020905b815481529060010190602001808311610ec257829003601f168201915b505050505090806003018054610ef4906117e9565b80601f0160208091040260200160405190810160405280929190818152602001828054610f20906117e9565b8015610f6d5780601f10610f4257610100808354040283529160200191610f6d565b820191906000526020600020905b815481529060010190602001808311610f5057829003601f168201915b505050505090806004018054610f82906117e9565b80601f0160208091040260200160405190810160405280929190818152602001828054610fae906117e9565b8015610ffb5780601f10610fd057610100808354040283529160200191610ffb565b820191906000526020600020905b815481529060010190602001808311610fde57829003601f168201915b50505050600583015460079093015491929160ff16905087565b6000828152602081905260409020600781015460ff16156110695760405162461bcd60e51b815260206004820152600e60248201526d105b1c9958591e481b1a5cdd195960921b604482015260640161095e565b60078101805460ff1916600117905560405183907fdeb5e120ccac3de9aa0f24bec02c69a4a1dc33858a086beed9468a9b1474bba2906109069085815260200190565b60008381526020818152604080832081516060810183524281528084018781529281018690526006820180546001818101835591875294909520815160039095020193845591519093919291820190611105908261191d565b506040820151600282019061111a908261191d565b505050837fa35e15119a4c868a24d2c06e2db36f41f8892510d793f8a8123d2fe4925648b3428560405161114f929190611a35565b60405180910390a250505050565b600082815260208190526040812060018101805491929161117d906117e9565b80601f01602080910402602001604051908101604052809291908181526020018280546111a9906117e9565b80156111f65780601f106111cb576101008083540402835291602001916111f6565b820191906000526020600020905b8154815290600101906020018083116111d957829003601f168201915b505050505090508282600101908161120e919061191d565b5060078201805460ff1916905560405160019061122c9085906118b2565b9081526040519081900360209081018220805460018101825560009182529190200185905584907fd5643b12fa251d97bedb00f0982a1ba1909b7b3786f872452317daa1c302dfcc906112829084908790611a4e565b60405180910390a260405184907fe84123e5d2c08f0d7de7c62856ae5e318c9cd8a9bb22687a831f772a36f5930290600090a250505050565b6000602082840312156112cd57600080fd5b5035919050565b60005b838110156112ef5781810151838201526020016112d7565b50506000910152565b600081518084526113108160208601602086016112d4565b601f01601f19169290920160200192915050565b60006101208083526113388184018d6112f8565b9050828103602084015261134c818c6112f8565b90508281036040840152611360818b6112f8565b90508281036060840152611374818a6112f8565b905087608084015286151560a08401528560c084015282810360e084015261139c81866112f8565b90508281036101008401526113b181856112f8565b9c9b505050505050505050505050565b634e487b7160e01b600052604160045260246000fd5b600082601f8301126113e857600080fd5b813567ffffffffffffffff80821115611403576114036113c1565b604051601f8301601f19908116603f0116810190828211818310171561142b5761142b6113c1565b8160405283815286602085880101111561144457600080fd5b836020870160208301376000602085830101528094505050505092915050565b60006020828403121561147657600080fd5b813567ffffffffffffffff81111561148d57600080fd5b611499848285016113d7565b949350505050565b6020808252825182820181905260009190848201906040850190845b818110156114d9578351835292840192918401916001016114bd565b50909695505050505050565b600080604083850312156114f857600080fd5b823567ffffffffffffffff81111561150f57600080fd5b61151b858286016113d7565b95602094909401359450505050565b600080600080600080600060e0888a03121561154557600080fd5b873567ffffffffffffffff8082111561155d57600080fd5b6115698b838c016113d7565b985060208a013591508082111561157f57600080fd5b61158b8b838c016113d7565b975060408a01359150808211156115a157600080fd5b6115ad8b838c016113d7565b965060608a01359150808211156115c357600080fd5b6115cf8b838c016113d7565b955060808a0135945060a08a01359150808211156115ec57600080fd5b6115f88b838c016113d7565b935060c08a013591508082111561160e57600080fd5b5061161b8a828b016113d7565b91505092959891949750929550565b6000806040838503121561163d57600080fd5b50508035926020909101359150565b83815260606020820152600061166560608301856112f8565b828103604084015261167781856112f8565b9695505050505050565b87815260e06020820152600061169a60e08301896112f8565b82810360408401526116ac81896112f8565b905082810360608401526116c081886112f8565b905082810360808401526116d481876112f8565b60a0840195909552505090151560c09091015295945050505050565b60008060006060848603121561170557600080fd5b83359250602084013567ffffffffffffffff8082111561172457600080fd5b611730878388016113d7565b9350604086013591508082111561174657600080fd5b50611753868287016113d7565b9150509250925092565b6000806040838503121561177057600080fd5b82359150602083013567ffffffffffffffff81111561178e57600080fd5b61179a858286016113d7565b9150509250929050565b634e487b7160e01b600052601160045260246000fd5b818103818111156117cd576117cd6117a4565b92915050565b634e487b7160e01b600052603260045260246000fd5b600181811c908216806117fd57607f821691505b60208210810361181d57634e487b7160e01b600052602260045260246000fd5b50919050565b6000808354611831816117e9565b60018281168015611849576001811461185e5761188d565b60ff198416875282151583028701945061188d565b8760005260208060002060005b858110156118845781548a82015290840190820161186b565b50505082870194505b50929695505050505050565b6000600182016118ab576118ab6117a4565b5060010190565b600082516118c48184602087016112d4565b9190910192915050565b601f82111561191857600081815260208120601f850160051c810160208610156118f55750805b601f850160051c820191505b8181101561191457828155600101611901565b5050505b505050565b815167ffffffffffffffff811115611937576119376113c1565b61194b8161194584546117e9565b846118ce565b602080601f83116001811461198057600084156119685750858301515b600019600386901b1c1916600185901b178555611914565b600085815260208120601f198616915b828110156119af57888601518255948401946001909101908401611990565b50858210156119cd5787850151600019600388901b60f8161c191681555b5050505050600190811b01905550565b6080815260006119f060808301876112f8565b8281036020840152611a0281876112f8565b90508281036040840152611a1681866112f8565b90508281036060840152611a2a81856112f8565b979650505050505050565b82815260406020820152600061149960408301846112f8565b604081526000611a6160408301856112f8565b8281036020840152611a7381856112f8565b9594505050505056fea26469706673582212207c4916f5c102b72258aefd007e6751bd88a3ea0e798020d28519fb24eed0a5ab64736f6c63430008130033",
  "immutableReferences": {},
  "source": "// SPDX-License-Identifier: MIT\r\npragma solidity ^0.8.19;\r\n\r\ncontract PartRegistry {\r\n    struct MaintenanceRecord {\r\n        uint256 timestamp;\r\n        string description;\r\n        string maintenanceCID;\r\n    }\r\n\r\n    struct Part {\r\n        uint256 id;\r\n        string owner;\r\n        string serialId;\r\n        string partDescription;\r\n        string manufacturingCompany;\r\n        uint256 manufacturingDate;\r\n        MaintenanceRecord[] maintenanceHistory;\r\n        bool forSale;\r\n    }\r\n\r\n    mapping(uint256 => Part) public parts;\r\n    mapping(string => uint256[]) public ownerParts;\r\n    mapping(string => uint256) public serialToPartId; // New mapping\r\n    uint256 public totalParts;\r\n\r\n    // Existing events\r\n    event PartCreated(uint256 indexed id, string owner, string serialId, string partDescription, string manufacturingCompany);\r\n    event MaintenanceAdded(uint256 indexed id, uint256 timestamp, string description);\r\n    event OwnershipTransferred(uint256 indexed id, string previousOwner, string newOwner);\r\n    event PartListed(uint256 indexed id, uint256 price);\r\n    event PartUnlisted(uint256 indexed id);\r\n\r\n    function createPart(\r\n        string memory ownerName,\r\n        string memory serialId,\r\n        string memory partDescription,\r\n        string memory manufacturingCompany,\r\n        uint256 manufacturingDate,\r\n        string memory initialMaintenanceCID,\r\n        string memory initialDescription\r\n    ) public {\r\n        require(serialToPartId[serialId] == 0, \"Serial ID already exists\");\r\n        \r\n        uint256 newPartId = totalParts++;\r\n        serialToPartId[serialId] = newPartId;\r\n\r\n        Part storage newPart = parts[newPartId];\r\n        newPart.id = newPartId;\r\n        newPart.owner = ownerName;\r\n        newPart.serialId = serialId;\r\n        newPart.partDescription = partDescription;\r\n        newPart.manufacturingCompany = manufacturingCompany;\r\n        newPart.manufacturingDate = manufacturingDate;\r\n        newPart.forSale = false;\r\n\r\n        ownerParts[ownerName].push(newPartId);\r\n\r\n        if (bytes(initialMaintenanceCID).length > 0) {\r\n            newPart.maintenanceHistory.push(MaintenanceRecord({\r\n                timestamp: block.timestamp,\r\n                description: initialDescription,\r\n                maintenanceCID: initialMaintenanceCID\r\n            }));\r\n        }\r\n\r\n        emit PartCreated(newPartId, ownerName, serialId, partDescription, manufacturingCompany);\r\n    }\r\n\r\n    // New serial ID based listing functions\r\n    function listForSaleBySerial(string memory serialId, uint256 price) public {\r\n        uint256 id = serialToPartId[serialId];\r\n        // require(id != 0, \"Invalid serial ID\"); // Remove validation\r\n        parts[id].forSale = true;\r\n        emit PartListed(id, price);\r\n    }\r\n\r\n    function unlistFromSaleBySerial(string memory serialId) public {\r\n        uint256 id = serialToPartId[serialId];\r\n        // require(id != 0, \"Invalid serial ID\"); // Remove validation\r\n        parts[id].forSale = false;\r\n        emit PartUnlisted(id);\r\n    }\r\n\r\n    // Existing functions remain unchanged below\r\n    function getPartsByOwner(string memory ownerName) public view returns (uint256[] memory) {\r\n        return ownerParts[ownerName];\r\n    }\r\n\r\n    function getPartsByManufacturingCompany(string memory company) public view returns (uint256[] memory) {\r\n        uint256[] memory result = new uint256[](totalParts);\r\n        uint256 count = 0;\r\n\r\n        for (uint256 i = 0; i < totalParts; i++) {\r\n            if (keccak256(bytes(parts[i].manufacturingCompany)) == keccak256(bytes(company))) {\r\n                result[count] = i;\r\n                count++;\r\n            }\r\n        }\r\n\r\n        uint256[] memory partsByCompany = new uint256[](count);\r\n        for (uint256 i = 0; i < count; i++) {\r\n            partsByCompany[i] = result[i];\r\n        }\r\n\r\n        return partsByCompany;\r\n    }\r\n\r\n    function addMaintenanceRecord(uint256 id, string memory description, string memory maintenanceCID) public {\r\n        Part storage part = parts[id];\r\n        part.maintenanceHistory.push(MaintenanceRecord({\r\n            timestamp: block.timestamp,\r\n            description: description,\r\n            maintenanceCID: maintenanceCID\r\n        }));\r\n        emit MaintenanceAdded(id, block.timestamp, description);\r\n    }\r\n\r\n    function transferOwnership(uint256 id, string memory newOwner) public {\r\n        Part storage part = parts[id];\r\n        string memory previousOwner = part.owner;\r\n        part.owner = newOwner;\r\n        part.forSale = false;\r\n        ownerParts[newOwner].push(id);\r\n        emit OwnershipTransferred(id, previousOwner, newOwner);\r\n        emit PartUnlisted(id);\r\n    }\r\n\r\n    function listForSale(uint256 id, uint256 price) public {\r\n        Part storage part = parts[id];\r\n        require(!part.forSale, \"Already listed\");\r\n        part.forSale = true;\r\n        emit PartListed(id, price);\r\n    }\r\n\r\n    function unlistFromSale(uint256 id) public {\r\n        Part storage part = parts[id];\r\n        require(part.forSale, \"Not listed\");\r\n        part.forSale = false;\r\n        emit PartUnlisted(id);\r\n    }\r\n\r\n    function getMaintenanceHistoryCount(uint256 id) public view returns (uint256) {\r\n        return parts[id].maintenanceHistory.length;\r\n    }\r\n\r\n    function getMaintenanceRecord(uint256 id, uint256 index) public view returns (\r\n        uint256 timestamp,\r\n        string memory description,\r\n        string memory maintenanceCID\r\n    ) {\r\n        MaintenanceRecord storage record = parts[id].maintenanceHistory[index];\r\n        return (record.timestamp, record.description, record.maintenanceCID);\r\n    }\r\n\r\n    function getPartDetails(uint256 id) public view returns (\r\n        string memory owner,\r\n        string memory serialId,\r\n        string memory partDescription,\r\n        string memory manufacturingCompany,\r\n        uint256 manufacturingDate,\r\n        bool forSale,\r\n        uint256 maintenanceCount,\r\n        string memory latestMaintenanceCID,\r\n        string memory latestMaintenanceDescription\r\n    ) {\r\n        Part storage part = parts[id];\r\n        uint256 count = part.maintenanceHistory.length;\r\n        string memory cid = \"\";\r\n        string memory description = \"\";\r\n\r\n        if (count > 0) {\r\n            MaintenanceRecord storage latestRecord = part.maintenanceHistory[count - 1];\r\n            cid = latestRecord.maintenanceCID;\r\n            description = latestRecord.description;\r\n        }\r\n\r\n        return (\r\n            part.owner,\r\n            part.serialId,\r\n            part.partDescription,\r\n            part.manufacturingCompany,\r\n            part.manufacturingDate,\r\n            part.forSale,\r\n            count,\r\n            cid,\r\n            description\r\n        );\r\n    }\r\n}",
  "sourcePath": "C:\\Users\\dhruv\\Desktop\\Nimbus\\Nimbus\\aerospace-supply\\contracts\\PartRegistry.sol",
  "compiler": {
    "name": "solc",
    "version": "0.8.19+commit.7dd6d404.Emscripten.clang"
  },
  "schemaVersion": "3.4.16",
  "updatedAt": "2025-04-29T14:26:12.523Z",
  "networkType": "ethereum",
  "devdoc": {
    "kind": "dev",
    "methods": {},
    "version": 1
  },
  "userdoc": {
    "kind": "user",
    "methods": {},
    "version": 1
  }
}