{
  "contractName": "PartRegistry",
  "abi": [
    {
      "anonymous": false,
      "inputs": [
        {
          "indexed": true,
          "internalType": "uint256",
          "name": "id",
          "type": "uint256"
        },
        {
          "indexed": false,
          "internalType": "uint256",
          "name": "timestamp",
          "type": "uint256"
        },
        {
          "indexed": false,
          "internalType": "string",
          "name": "description",
          "type": "string"
        }
      ],
      "name": "MaintenanceAdded",
      "type": "event"
    },
    {
      "anonymous": false,
      "inputs": [
        {
          "indexed": true,
          "internalType": "uint256",
          "name": "id",
          "type": "uint256"
        },
        {
          "indexed": false,
          "internalType": "string",
          "name": "previousOwner",
          "type": "string"
        },
        {
          "indexed": false,
          "internalType": "string",
          "name": "newOwner",
          "type": "string"
        }
      ],
      "name": "OwnershipTransferred",
      "type": "event"
    },
    {
      "anonymous": false,
      "inputs": [
        {
          "indexed": true,
          "internalType": "uint256",
          "name": "id",
          "type": "uint256"
        },
        {
          "indexed": false,
          "internalType": "string",
          "name": "owner",
          "type": "string"
        },
        {
          "indexed": false,
          "internalType": "string",
          "name": "serialId",
          "type": "string"
        },
        {
          "indexed": false,
          "internalType": "string",
          "name": "partDescription",
          "type": "string"
        },
        {
          "indexed": false,
          "internalType": "string",
          "name": "manufacturingCompany",
          "type": "string"
        }
      ],
      "name": "PartCreated",
      "type": "event"
    },
    {
      "anonymous": false,
      "inputs": [
        {
          "indexed": true,
          "internalType": "uint256",
          "name": "id",
          "type": "uint256"
        },
        {
          "indexed": false,
          "internalType": "uint256",
          "name": "price",
          "type": "uint256"
        }
      ],
      "name": "PartListed",
      "type": "event"
    },
    {
      "anonymous": false,
      "inputs": [
        {
          "indexed": true,
          "internalType": "uint256",
          "name": "id",
          "type": "uint256"
        }
      ],
      "name": "PartUnlisted",
      "type": "event"
    },
    {
      "inputs": [
        {
          "internalType": "uint256",
          "name": "",
          "type": "uint256"
        }
      ],
      "name": "listings",
      "outputs": [
        {
          "internalType": "uint256",
          "name": "price",
          "type": "uint256"
        },
        {
          "internalType": "uint256",
          "name": "listDate",
          "type": "uint256"
        },
        {
          "internalType": "address",
          "name": "seller",
          "type": "address"
        }
      ],
      "stateMutability": "view",
      "type": "function",
      "constant": true
    },
    {
      "inputs": [
        {
          "internalType": "string",
          "name": "",
          "type": "string"
        },
        {
          "internalType": "uint256",
          "name": "",
          "type": "uint256"
        }
      ],
      "name": "ownerParts",
      "outputs": [
        {
          "internalType": "uint256",
          "name": "",
          "type": "uint256"
        }
      ],
      "stateMutability": "view",
      "type": "function",
      "constant": true
    },
    {
      "inputs": [
        {
          "internalType": "uint256",
          "name": "",
          "type": "uint256"
        }
      ],
      "name": "parts",
      "outputs": [
        {
          "internalType": "uint256",
          "name": "id",
          "type": "uint256"
        },
        {
          "internalType": "string",
          "name": "owner",
          "type": "string"
        },
        {
          "internalType": "string",
          "name": "serialId",
          "type": "string"
        },
        {
          "internalType": "string",
          "name": "partDescription",
          "type": "string"
        },
        {
          "internalType": "string",
          "name": "manufacturingCompany",
          "type": "string"
        },
        {
          "internalType": "uint256",
          "name": "manufacturingDate",
          "type": "uint256"
        },
        {
          "internalType": "bool",
          "name": "forSale",
          "type": "bool"
        }
      ],
      "stateMutability": "view",
      "type": "function",
      "constant": true
    },
    {
      "inputs": [
        {
          "internalType": "string",
          "name": "",
          "type": "string"
        }
      ],
      "name": "serialToPartId",
      "outputs": [
        {
          "internalType": "uint256",
          "name": "",
          "type": "uint256"
        }
      ],
      "stateMutability": "view",
      "type": "function",
      "constant": true
    },
    {
      "inputs": [],
      "name": "totalParts",
      "outputs": [
        {
          "internalType": "uint256",
          "name": "",
          "type": "uint256"
        }
      ],
      "stateMutability": "view",
      "type": "function",
      "constant": true
    },
    {
      "inputs": [
        {
          "internalType": "string",
          "name": "ownerName",
          "type": "string"
        },
        {
          "internalType": "string",
          "name": "serialId",
          "type": "string"
        },
        {
          "internalType": "string",
          "name": "partDescription",
          "type": "string"
        },
        {
          "internalType": "string",
          "name": "manufacturingCompany",
          "type": "string"
        },
        {
          "internalType": "uint256",
          "name": "manufacturingDate",
          "type": "uint256"
        },
        {
          "internalType": "string",
          "name": "initialMaintenanceCID",
          "type": "string"
        },
        {
          "internalType": "string",
          "name": "initialDescription",
          "type": "string"
        }
      ],
      "name": "createPart",
      "outputs": [],
      "stateMutability": "nonpayable",
      "type": "function"
    },
    {
      "inputs": [
        {
          "internalType": "string",
          "name": "serialId",
          "type": "string"
        },
        {
          "internalType": "uint256",
          "name": "price",
          "type": "uint256"
        }
      ],
      "name": "listForSaleBySerial",
      "outputs": [],
      "stateMutability": "nonpayable",
      "type": "function"
    },
    {
      "inputs": [
        {
          "internalType": "string",
          "name": "serialId",
          "type": "string"
        }
      ],
      "name": "unlistFromSaleBySerial",
      "outputs": [],
      "stateMutability": "nonpayable",
      "type": "function"
    },
    {
      "inputs": [],
      "name": "getMarketplaceListings",
      "outputs": [
        {
          "internalType": "uint256[]",
          "name": "",
          "type": "uint256[]"
        },
        {
          "internalType": "string[]",
          "name": "",
          "type": "string[]"
        },
        {
          "components": [
            {
              "internalType": "uint256",
              "name": "price",
              "type": "uint256"
            },
            {
              "internalType": "uint256",
              "name": "listDate",
              "type": "uint256"
            },
            {
              "internalType": "address",
              "name": "seller",
              "type": "address"
            }
          ],
          "internalType": "struct PartRegistry.Listing[]",
          "name": "",
          "type": "tuple[]"
        }
      ],
      "stateMutability": "view",
      "type": "function",
      "constant": true
    },
    {
      "inputs": [
        {
          "internalType": "string",
          "name": "ownerName",
          "type": "string"
        }
      ],
      "name": "getPartsByOwner",
      "outputs": [
        {
          "internalType": "uint256[]",
          "name": "",
          "type": "uint256[]"
        }
      ],
      "stateMutability": "view",
      "type": "function",
      "constant": true
    },
    {
      "inputs": [
        {
          "internalType": "string",
          "name": "company",
          "type": "string"
        }
      ],
      "name": "getPartsByManufacturingCompany",
      "outputs": [
        {
          "internalType": "uint256[]",
          "name": "",
          "type": "uint256[]"
        }
      ],
      "stateMutability": "view",
      "type": "function",
      "constant": true
    },
    {
      "inputs": [
        {
          "internalType": "uint256",
          "name": "id",
          "type": "uint256"
        },
        {
          "internalType": "string",
          "name": "description",
          "type": "string"
        },
        {
          "internalType": "string",
          "name": "maintenanceCID",
          "type": "string"
        }
      ],
      "name": "addMaintenanceRecord",
      "outputs": [],
      "stateMutability": "nonpayable",
      "type": "function"
    },
    {
      "inputs": [
        {
          "internalType": "uint256",
          "name": "id",
          "type": "uint256"
        },
        {
          "internalType": "string",
          "name": "newOwner",
          "type": "string"
        }
      ],
      "name": "transferOwnership",
      "outputs": [],
      "stateMutability": "nonpayable",
      "type": "function"
    },
    {
      "inputs": [
        {
          "internalType": "string",
          "name": "serialId",
          "type": "string"
        },
        {
          "internalType": "string",
          "name": "newOwner",
          "type": "string"
        }
      ],
      "name": "buyPart",
      "outputs": [],
      "stateMutability": "nonpayable",
      "type": "function"
    },
    {
      "inputs": [
        {
          "internalType": "uint256",
          "name": "id",
          "type": "uint256"
        },
        {
          "internalType": "uint256",
          "name": "price",
          "type": "uint256"
        }
      ],
      "name": "listForSale",
      "outputs": [],
      "stateMutability": "nonpayable",
      "type": "function"
    },
    {
      "inputs": [
        {
          "internalType": "uint256",
          "name": "id",
          "type": "uint256"
        }
      ],
      "name": "unlistFromSale",
      "outputs": [],
      "stateMutability": "nonpayable",
      "type": "function"
    },
    {
      "inputs": [
        {
          "internalType": "uint256",
          "name": "id",
          "type": "uint256"
        }
      ],
      "name": "getMaintenanceHistoryCount",
      "outputs": [
        {
          "internalType": "uint256",
          "name": "",
          "type": "uint256"
        }
      ],
      "stateMutability": "view",
      "type": "function",
      "constant": true
    },
    {
      "inputs": [
        {
          "internalType": "uint256",
          "name": "id",
          "type": "uint256"
        },
        {
          "internalType": "uint256",
          "name": "index",
          "type": "uint256"
        }
      ],
      "name": "getMaintenanceRecord",
      "outputs": [
        {
          "internalType": "uint256",
          "name": "timestamp",
          "type": "uint256"
        },
        {
          "internalType": "string",
          "name": "description",
          "type": "string"
        },
        {
          "internalType": "string",
          "name": "maintenanceCID",
          "type": "string"
        }
      ],
      "stateMutability": "view",
      "type": "function",
      "constant": true
    },
    {
      "inputs": [
        {
          "internalType": "uint256",
          "name": "id",
          "type": "uint256"
        }
      ],
      "name": "getPartDetails",
      "outputs": [
        {
          "internalType": "string",
          "name": "owner",
          "type": "string"
        },
        {
          "internalType": "string",
          "name": "serialId",
          "type": "string"
        },
        {
          "internalType": "string",
          "name": "partDescription",
          "type": "string"
        },
        {
          "internalType": "string",
          "name": "manufacturingCompany",
          "type": "string"
        },
        {
          "internalType": "uint256",
          "name": "manufacturingDate",
          "type": "uint256"
        },
        {
          "internalType": "bool",
          "name": "forSale",
          "type": "bool"
        },
        {
          "internalType": "uint256",
          "name": "maintenanceCount",
          "type": "uint256"
        },
        {
          "internalType": "string",
          "name": "latestMaintenanceCID",
          "type": "string"
        },
        {
          "internalType": "string",
          "name": "latestMaintenanceDescription",
          "type": "string"
        }
      ],
      "stateMutability": "view",
      "type": "function",
      "constant": true
    }
  ],
  "bytecode": "0x608060405234801561001057600080fd5b50611fbc806100206000396000f3fe608060405234801561001057600080fd5b50600436106101215760003560e01c8063c78dcb61116100ad578063ee8167bc11610071578063ee8167bc146102f2578063f2daddfa146102fb578063f9f5c7391461030e578063fa02454914610321578063fa5675541461033457600080fd5b8063c78dcb6114610210578063c9eb466214610232578063de74e57b14610258578063dfea8858146102b4578063e80d7fec146102df57600080fd5b80637221bb01116100f45780637221bb011461019f57806380f0e0cf146101b25780638d57ba85146101d357806399ac7be2146101e6578063ba18e9cd146101fd57600080fd5b80632fb71bdb1461012657806342673ed91461015757806343ee5aca146101775780636b4b5df41461018c575b600080fd5b610139610134366004611697565b610357565b60405161014e99989796959493929190611700565b60405180910390f35b61016a61016536600461183f565b610768565b60405161014e91906118b6565b61018a61018536600461183f565b6108d9565b005b61018a61019a3660046118d0565b610940565b61018a6101ad366004611697565b610a0b565b6101c56101c03660046118d0565b610a9a565b60405190815260200161014e565b61016a6101e136600461183f565b610ada565b6101ee610b4a565b60405161014e93929190611914565b61018a61020b3660046119e0565b610e35565b61022361021e366004611adf565b611029565b60405161014e93929190611b01565b610245610240366004611697565b611199565b60405161014e9796959493929190611b36565b610290610266366004611697565b6003602052600090815260409020805460018201546002909201549091906001600160a01b031683565b6040805193845260208401929092526001600160a01b03169082015260600161014e565b6101c56102c236600461183f565b805160208183018101805160028252928201919093012091525481565b61018a6102ed366004611adf565b6113f8565b6101c560045481565b61018a610309366004611ba5565b61148f565b61018a61031c366004611c08565b6114c1565b61018a61032f366004611c74565b611572565b6101c5610342366004611697565b60009081526020819052604090206006015490565b6000818152602081815260408083206006810154825180850184528581528351948501909352848452606094859485948594929384938493879384939182156104eb576000600685016103ab600186611cc6565b815481106103bb576103bb611cdf565b906000526020600020906003020190508060020180546103da90611cf5565b80601f016020809104026020016040519081016040528092919081815260200182805461040690611cf5565b80156104535780601f1061042857610100808354040283529160200191610453565b820191906000526020600020905b81548152906001019060200180831161043657829003601f168201915b5050505050925080600101805461046990611cf5565b80601f016020809104026020016040519081016040528092919081815260200182805461049590611cf5565b80156104e25780601f106104b7576101008083540402835291602001916104e2565b820191906000526020600020905b8154815290600101906020018083116104c557829003601f168201915b50505050509150505b8360010184600201856003018660040187600501548860070160009054906101000a900460ff1688888888805461052190611cf5565b80601f016020809104026020016040519081016040528092919081815260200182805461054d90611cf5565b801561059a5780601f1061056f5761010080835404028352916020019161059a565b820191906000526020600020905b81548152906001019060200180831161057d57829003601f168201915b505050505098508780546105ad90611cf5565b80601f01602080910402602001604051908101604052809291908181526020018280546105d990611cf5565b80156106265780601f106105fb57610100808354040283529160200191610626565b820191906000526020600020905b81548152906001019060200180831161060957829003601f168201915b5050505050975086805461063990611cf5565b80601f016020809104026020016040519081016040528092919081815260200182805461066590611cf5565b80156106b25780601f10610687576101008083540402835291602001916106b2565b820191906000526020600020905b81548152906001019060200180831161069557829003601f168201915b505050505096508580546106c590611cf5565b80601f01602080910402602001604051908101604052809291908181526020018280546106f190611cf5565b801561073e5780601f106107135761010080835404028352916020019161073e565b820191906000526020600020905b81548152906001019060200180831161072157829003601f168201915b505050505095509c509c509c509c509c509c509c509c509c50505050509193959799909294969850565b606060006004546001600160401b038111156107865761078661179d565b6040519080825280602002602001820160405280156107af578160200160208202803683370190505b5090506000805b6004548110156108355784805190602001206000808381526020019081526020016000206004016040516107ea9190611d2f565b604051809103902003610823578083838151811061080a5761080a611cdf565b60209081029190910101528161081f81611da5565b9250505b8061082d81611da5565b9150506107b6565b506000816001600160401b038111156108505761085061179d565b604051908082528060200260200182016040528015610879578160200160208202803683370190505b50905060005b828110156108d05783818151811061089957610899611cdf565b60200260200101518282815181106108b3576108b3611cdf565b6020908102919091010152806108c881611da5565b91505061087f565b50949350505050565b60006002826040516108eb9190611dbe565b908152604080516020928190038301812054600081815293849052918320600701805460ff1916905590925082917fe84123e5d2c08f0d7de7c62856ae5e318c9cd8a9bb22687a831f772a36f5930291a25050565b60006002836040516109529190611dbe565b90815260408051602092819003830181205460008181528085528381206007018054600160ff1990911681179091556060840185528784524286850190815233858701908152848452600388529286902094518555519084015551600290920180546001600160a01b0319166001600160a01b0390931692909217909155905184815290925082917fdeb5e120ccac3de9aa0f24bec02c69a4a1dc33858a086beed9468a9b1474bba291015b60405180910390a2505050565b6000818152602081905260409020600781015460ff16610a5f5760405162461bcd60e51b815260206004820152600a602482015269139bdd081b1a5cdd195960b21b60448201526064015b60405180910390fd5b60078101805460ff1916905560405182907fe84123e5d2c08f0d7de7c62856ae5e318c9cd8a9bb22687a831f772a36f5930290600090a25050565b81516020818401810180516001825292820191850191909120919052805482908110610ac557600080fd5b90600052602060002001600091509150505481565b6060600182604051610aec9190611dbe565b9081526040805191829003602090810183208054808302850183019093528284529190830182828015610b3e57602002820191906000526020600020905b815481526020019060010190808311610b2a575b50505050509050919050565b60608060606000805b600454811015610b975760008181526020819052604090206007015460ff1615610b855781610b8181611da5565b9250505b80610b8f81611da5565b915050610b53565b506000816001600160401b03811115610bb257610bb261179d565b604051908082528060200260200182016040528015610bdb578160200160208202803683370190505b5090506000826001600160401b03811115610bf857610bf861179d565b604051908082528060200260200182016040528015610c2b57816020015b6060815260200190600190039081610c165790505b5090506000836001600160401b03811115610c4857610c4861179d565b604051908082528060200260200182016040528015610ca657816020015b610c936040518060600160405280600081526020016000815260200160006001600160a01b031681525090565b815260200190600190039081610c665790505b5090506000805b600454811015610e275760008181526020819052604090206007015460ff1615610e155780858381518110610ce457610ce4611cdf565b6020026020010181815250506000808281526020019081526020016000206002018054610d1090611cf5565b80601f0160208091040260200160405190810160405280929190818152602001828054610d3c90611cf5565b8015610d895780601f10610d5e57610100808354040283529160200191610d89565b820191906000526020600020905b815481529060010190602001808311610d6c57829003601f168201915b5050505050848381518110610da057610da0611cdf565b602090810291909101810191909152600082815260038252604090819020815160608101835281548152600182015493810193909352600201546001600160a01b0316908201528351849084908110610dfb57610dfb611cdf565b60200260200101819052508180610e1190611da5565b9250505b80610e1f81611da5565b915050610cad565b509297919650945092505050565b600286604051610e459190611dbe565b908152602001604051809103902054600014610ea35760405162461bcd60e51b815260206004820152601860248201527f53657269616c20494420616c72656164792065786973747300000000000000006044820152606401610a56565b6004805460009182610eb483611da5565b91905055905080600288604051610ecb9190611dbe565b9081526040805160209281900383019020929092556000838152908190522081815560018101610efb8a82611e28565b5060028101610f0a8982611e28565b5060038101610f198882611e28565b5060048101610f288782611e28565b506005810185905560078101805460ff19169055604051600190610f4d908b90611dbe565b908152604051602091819003820190208054600181018255600091825291902001829055835115610fe057604080516060810182524281526020808201868152928201879052600684018054600181810183556000928352929091208351600390920201908155925191929190820190610fc79082611e28565b5060408201516002820190610fdc9082611e28565b5050505b817f3fe18d5a91bf5cda125b715f0947fc884bd7e0df0741ac5e611e91db30e3c9548a8a8a8a6040516110169493929190611ee7565b60405180910390a2505050505050505050565b60006060806000806000878152602001908152602001600020600601858154811061105657611056611cdf565b906000526020600020906003020190508060000154816001018260020181805461107f90611cf5565b80601f01602080910402602001604051908101604052809291908181526020018280546110ab90611cf5565b80156110f85780601f106110cd576101008083540402835291602001916110f8565b820191906000526020600020905b8154815290600101906020018083116110db57829003601f168201915b5050505050915080805461110b90611cf5565b80601f016020809104026020016040519081016040528092919081815260200182805461113790611cf5565b80156111845780601f1061115957610100808354040283529160200191611184565b820191906000526020600020905b81548152906001019060200180831161116757829003601f168201915b50505050509050935093509350509250925092565b600060208190529081526040902080546001820180549192916111bb90611cf5565b80601f01602080910402602001604051908101604052809291908181526020018280546111e790611cf5565b80156112345780601f1061120957610100808354040283529160200191611234565b820191906000526020600020905b81548152906001019060200180831161121757829003601f168201915b50505050509080600201805461124990611cf5565b80601f016020809104026020016040519081016040528092919081815260200182805461127590611cf5565b80156112c25780601f10611297576101008083540402835291602001916112c2565b820191906000526020600020905b8154815290600101906020018083116112a557829003601f168201915b5050505050908060030180546112d790611cf5565b80601f016020809104026020016040519081016040528092919081815260200182805461130390611cf5565b80156113505780601f1061132557610100808354040283529160200191611350565b820191906000526020600020905b81548152906001019060200180831161133357829003601f168201915b50505050509080600401805461136590611cf5565b80601f016020809104026020016040519081016040528092919081815260200182805461139190611cf5565b80156113de5780601f106113b3576101008083540402835291602001916113de565b820191906000526020600020905b8154815290600101906020018083116113c157829003601f168201915b50505050600583015460079093015491929160ff16905087565b6000828152602081905260409020600781015460ff161561144c5760405162461bcd60e51b815260206004820152600e60248201526d105b1c9958591e481b1a5cdd195960921b6044820152606401610a56565b60078101805460ff1916600117905560405183907fdeb5e120ccac3de9aa0f24bec02c69a4a1dc33858a086beed9468a9b1474bba2906109fe9085815260200190565b60006002836040516114a19190611dbe565b90815260200160405180910390205490506114bc8183611572565b505050565b6000838152602081815260408083208151606081018352428152808401878152928101869052600682018054600181810183559187529490952081516003909502019384559151909391929182019061151a9082611e28565b506040820151600282019061152f9082611e28565b505050837fa35e15119a4c868a24d2c06e2db36f41f8892510d793f8a8123d2fe4925648b34285604051611564929190611f3f565b60405180910390a250505050565b600082815260208190526040812060018101805491929161159290611cf5565b80601f01602080910402602001604051908101604052809291908181526020018280546115be90611cf5565b801561160b5780601f106115e05761010080835404028352916020019161160b565b820191906000526020600020905b8154815290600101906020018083116115ee57829003601f168201915b50505050509050828260010190816116239190611e28565b5060078201805460ff19169055604051600190611641908590611dbe565b9081526040519081900360209081018220805460018101825560009182529190200185905584907fd5643b12fa251d97bedb00f0982a1ba1909b7b3786f872452317daa1c302dfcc906115649084908790611f58565b6000602082840312156116a957600080fd5b5035919050565b60005b838110156116cb5781810151838201526020016116b3565b50506000910152565b600081518084526116ec8160208601602086016116b0565b601f01601f19169290920160200192915050565b60006101208083526117148184018d6116d4565b90508281036020840152611728818c6116d4565b9050828103604084015261173c818b6116d4565b90508281036060840152611750818a6116d4565b905087608084015286151560a08401528560c084015282810360e084015261177881866116d4565b905082810361010084015261178d81856116d4565b9c9b505050505050505050505050565b634e487b7160e01b600052604160045260246000fd5b600082601f8301126117c457600080fd5b81356001600160401b03808211156117de576117de61179d565b604051601f8301601f19908116603f011681019082821181831017156118065761180661179d565b8160405283815286602085880101111561181f57600080fd5b836020870160208301376000602085830101528094505050505092915050565b60006020828403121561185157600080fd5b81356001600160401b0381111561186757600080fd5b611873848285016117b3565b949350505050565b600081518084526020808501945080840160005b838110156118ab5781518752958201959082019060010161188f565b509495945050505050565b6020815260006118c9602083018461187b565b9392505050565b600080604083850312156118e357600080fd5b82356001600160401b038111156118f957600080fd5b611905858286016117b3565b95602094909401359450505050565b600060608083526119278184018761187b565b6020848203818601528187518084528284019150828160051b850101838a0160005b8381101561197757601f198784030185526119658383516116d4565b94860194925090850190600101611949565b505060409450878103858901528092508851915081815283810192505082880160005b828110156119d05781518051855285810151868601528601516001600160a01b031686850152928601929084019060010161199a565b50919a9950505050505050505050565b600080600080600080600060e0888a0312156119fb57600080fd5b87356001600160401b0380821115611a1257600080fd5b611a1e8b838c016117b3565b985060208a0135915080821115611a3457600080fd5b611a408b838c016117b3565b975060408a0135915080821115611a5657600080fd5b611a628b838c016117b3565b965060608a0135915080821115611a7857600080fd5b611a848b838c016117b3565b955060808a0135945060a08a0135915080821115611aa157600080fd5b611aad8b838c016117b3565b935060c08a0135915080821115611ac357600080fd5b50611ad08a828b016117b3565b91505092959891949750929550565b60008060408385031215611af257600080fd5b50508035926020909101359150565b838152606060208201526000611b1a60608301856116d4565b8281036040840152611b2c81856116d4565b9695505050505050565b87815260e060208201526000611b4f60e08301896116d4565b8281036040840152611b6181896116d4565b90508281036060840152611b7581886116d4565b90508281036080840152611b8981876116d4565b60a0840195909552505090151560c09091015295945050505050565b60008060408385031215611bb857600080fd5b82356001600160401b0380821115611bcf57600080fd5b611bdb868387016117b3565b93506020850135915080821115611bf157600080fd5b50611bfe858286016117b3565b9150509250929050565b600080600060608486031215611c1d57600080fd5b8335925060208401356001600160401b0380821115611c3b57600080fd5b611c47878388016117b3565b93506040860135915080821115611c5d57600080fd5b50611c6a868287016117b3565b9150509250925092565b60008060408385031215611c8757600080fd5b8235915060208301356001600160401b03811115611ca457600080fd5b611bfe858286016117b3565b634e487b7160e01b600052601160045260246000fd5b81810381811115611cd957611cd9611cb0565b92915050565b634e487b7160e01b600052603260045260246000fd5b600181811c90821680611d0957607f821691505b602082108103611d2957634e487b7160e01b600052602260045260246000fd5b50919050565b6000808354611d3d81611cf5565b60018281168015611d555760018114611d6a57611d99565b60ff1984168752821515830287019450611d99565b8760005260208060002060005b85811015611d905781548a820152908401908201611d77565b50505082870194505b50929695505050505050565b600060018201611db757611db7611cb0565b5060010190565b60008251611dd08184602087016116b0565b9190910192915050565b601f8211156114bc57600081815260208120601f850160051c81016020861015611e015750805b601f850160051c820191505b81811015611e2057828155600101611e0d565b505050505050565b81516001600160401b03811115611e4157611e4161179d565b611e5581611e4f8454611cf5565b84611dda565b602080601f831160018114611e8a5760008415611e725750858301515b600019600386901b1c1916600185901b178555611e20565b600085815260208120601f198616915b82811015611eb957888601518255948401946001909101908401611e9a565b5085821015611ed75787850151600019600388901b60f8161c191681555b5050505050600190811b01905550565b608081526000611efa60808301876116d4565b8281036020840152611f0c81876116d4565b90508281036040840152611f2081866116d4565b90508281036060840152611f3481856116d4565b979650505050505050565b82815260406020820152600061187360408301846116d4565b604081526000611f6b60408301856116d4565b8281036020840152611f7d81856116d4565b9594505050505056fea2646970667358221220cdf003fa301b9b77804f4897eb3883fe86d4bfc0b9b5fb10b6ec4ca98d2b26a264736f6c63430008130033",
  "immutableReferences": {},
  "source": "// SPDX-License-Identifier: MIT\r\npragma solidity ^0.8.19;\r\n\r\ncontract PartRegistry {\r\n    struct MaintenanceRecord {\r\n        uint256 timestamp;\r\n        string description;\r\n        string maintenanceCID;\r\n    }\r\n\r\n    struct Part {\r\n        uint256 id;\r\n        string owner;\r\n        string serialId;\r\n        string partDescription;\r\n        string manufacturingCompany;\r\n        uint256 manufacturingDate;\r\n        MaintenanceRecord[] maintenanceHistory;\r\n        bool forSale;\r\n    }\r\n\r\n    struct Listing {\r\n        uint256 price;\r\n        uint256 listDate;\r\n        address seller;\r\n    }\r\n\r\n    mapping(uint256 => Part) public parts;\r\n    mapping(string => uint256[]) public ownerParts;\r\n    mapping(string => uint256) public serialToPartId; // New mapping\r\n    mapping(uint256 => Listing) public listings;\r\n    uint256 public totalParts;\r\n\r\n    // Existing events\r\n    event PartCreated(uint256 indexed id, string owner, string serialId, string partDescription, string manufacturingCompany);\r\n    event MaintenanceAdded(uint256 indexed id, uint256 timestamp, string description);\r\n    event OwnershipTransferred(uint256 indexed id, string previousOwner, string newOwner);\r\n    event PartListed(uint256 indexed id, uint256 price);\r\n    event PartUnlisted(uint256 indexed id);\r\n\r\n    function createPart(\r\n        string memory ownerName,\r\n        string memory serialId,\r\n        string memory partDescription,\r\n        string memory manufacturingCompany,\r\n        uint256 manufacturingDate,\r\n        string memory initialMaintenanceCID,\r\n        string memory initialDescription\r\n    ) public {\r\n        require(serialToPartId[serialId] == 0, \"Serial ID already exists\");\r\n        \r\n        uint256 newPartId = totalParts++;\r\n        serialToPartId[serialId] = newPartId;\r\n\r\n        Part storage newPart = parts[newPartId];\r\n        newPart.id = newPartId;\r\n        newPart.owner = ownerName;\r\n        newPart.serialId = serialId;\r\n        newPart.partDescription = partDescription;\r\n        newPart.manufacturingCompany = manufacturingCompany;\r\n        newPart.manufacturingDate = manufacturingDate;\r\n        newPart.forSale = false;\r\n\r\n        ownerParts[ownerName].push(newPartId);\r\n\r\n        if (bytes(initialMaintenanceCID).length > 0) {\r\n            newPart.maintenanceHistory.push(MaintenanceRecord({\r\n                timestamp: block.timestamp,\r\n                description: initialDescription,\r\n                maintenanceCID: initialMaintenanceCID\r\n            }));\r\n        }\r\n\r\n        emit PartCreated(newPartId, ownerName, serialId, partDescription, manufacturingCompany);\r\n    }\r\n\r\n    // New serial ID based listing functions\r\n    function listForSaleBySerial(string memory serialId, uint256 price) public {\r\n    uint256 id = serialToPartId[serialId];\r\n    //require(id != 0, \"Invalid serial ID\");\r\n    \r\n    parts[id].forSale = true;\r\n    listings[id] = Listing({\r\n        price: price,\r\n        listDate: block.timestamp,\r\n        seller: msg.sender\r\n    });\r\n    \r\n    emit PartListed(id, price);\r\n}\r\n\r\n    function unlistFromSaleBySerial(string memory serialId) public {\r\n        uint256 id = serialToPartId[serialId];\r\n        // require(id != 0, \"Invalid serial ID\"); // Remove validation\r\n        parts[id].forSale = false;\r\n        emit PartUnlisted(id);\r\n    }\r\n\r\n    function getMarketplaceListings() external view returns (\r\n        uint256[] memory,\r\n        string[] memory,\r\n        Listing[] memory\r\n    ) {\r\n        uint256 count = 0;\r\n        for (uint256 i = 0; i < totalParts; i++) {\r\n            if (parts[i].forSale) count++;\r\n        }\r\n\r\n        uint256[] memory ids = new uint256[](count);\r\n        string[] memory serialIds = new string[](count);\r\n        Listing[] memory listingInfo = new Listing[](count);\r\n        \r\n        uint256 index = 0;\r\n        for (uint256 i = 0; i < totalParts; i++) {\r\n            if (parts[i].forSale) {\r\n                ids[index] = i;\r\n                serialIds[index] = parts[i].serialId;\r\n                listingInfo[index] = listings[i];\r\n                index++;\r\n            }\r\n        }\r\n        \r\n        return (ids, serialIds, listingInfo);\r\n    }\r\n\r\n    // Existing functions remain unchanged below\r\n    function getPartsByOwner(string memory ownerName) public view returns (uint256[] memory) {\r\n        return ownerParts[ownerName];\r\n    }\r\n\r\n    function getPartsByManufacturingCompany(string memory company) public view returns (uint256[] memory) {\r\n        uint256[] memory result = new uint256[](totalParts);\r\n        uint256 count = 0;\r\n\r\n        for (uint256 i = 0; i < totalParts; i++) {\r\n            if (keccak256(bytes(parts[i].manufacturingCompany)) == keccak256(bytes(company))) {\r\n                result[count] = i;\r\n                count++;\r\n            }\r\n        }\r\n\r\n        uint256[] memory partsByCompany = new uint256[](count);\r\n        for (uint256 i = 0; i < count; i++) {\r\n            partsByCompany[i] = result[i];\r\n        }\r\n\r\n        return partsByCompany;\r\n    }\r\n\r\n    function addMaintenanceRecord(uint256 id, string memory description, string memory maintenanceCID) public {\r\n        Part storage part = parts[id];\r\n        part.maintenanceHistory.push(MaintenanceRecord({\r\n            timestamp: block.timestamp,\r\n            description: description,\r\n            maintenanceCID: maintenanceCID\r\n        }));\r\n        emit MaintenanceAdded(id, block.timestamp, description);\r\n    }\r\n\r\n    function transferOwnership(uint256 id, string memory newOwner) public {\r\n        Part storage part = parts[id];\r\n        string memory previousOwner = part.owner;\r\n        \r\n        part.owner = newOwner;\r\n        part.forSale = false;\r\n        \r\n        ownerParts[newOwner].push(id);\r\n        emit OwnershipTransferred(id, previousOwner, newOwner);\r\n    }\r\n\r\n    // Simplified purchase (no payment handling)\r\n    function buyPart(string memory serialId, string memory newOwner) public {\r\n        uint256 id = serialToPartId[serialId];\r\n        transferOwnership(id, newOwner);\r\n    }\r\n\r\n    function listForSale(uint256 id, uint256 price) public {\r\n        Part storage part = parts[id];\r\n        require(!part.forSale, \"Already listed\");\r\n        part.forSale = true;\r\n        emit PartListed(id, price);\r\n    }\r\n\r\n    function unlistFromSale(uint256 id) public {\r\n        Part storage part = parts[id];\r\n        require(part.forSale, \"Not listed\");\r\n        part.forSale = false;\r\n        emit PartUnlisted(id);\r\n    }\r\n\r\n    function getMaintenanceHistoryCount(uint256 id) public view returns (uint256) {\r\n        return parts[id].maintenanceHistory.length;\r\n    }\r\n\r\n    function getMaintenanceRecord(uint256 id, uint256 index) public view returns (\r\n        uint256 timestamp,\r\n        string memory description,\r\n        string memory maintenanceCID\r\n    ) {\r\n        MaintenanceRecord storage record = parts[id].maintenanceHistory[index];\r\n        return (record.timestamp, record.description, record.maintenanceCID);\r\n    }\r\n\r\n    function getPartDetails(uint256 id) public view returns (\r\n        string memory owner,\r\n        string memory serialId,\r\n        string memory partDescription,\r\n        string memory manufacturingCompany,\r\n        uint256 manufacturingDate,\r\n        bool forSale,\r\n        uint256 maintenanceCount,\r\n        string memory latestMaintenanceCID,\r\n        string memory latestMaintenanceDescription\r\n    ) {\r\n        Part storage part = parts[id];\r\n        uint256 count = part.maintenanceHistory.length;\r\n        string memory cid = \"\";\r\n        string memory description = \"\";\r\n\r\n        if (count > 0) {\r\n            MaintenanceRecord storage latestRecord = part.maintenanceHistory[count - 1];\r\n            cid = latestRecord.maintenanceCID;\r\n            description = latestRecord.description;\r\n        }\r\n\r\n        return (\r\n            part.owner,\r\n            part.serialId,\r\n            part.partDescription,\r\n            part.manufacturingCompany,\r\n            part.manufacturingDate,\r\n            part.forSale,\r\n            count,\r\n            cid,\r\n            description\r\n        );\r\n    }\r\n}",
  "sourcePath": "C:\\Users\\dhruv\\Desktop\\Nimbus\\Nimbus\\aerospace-supply\\contracts\\PartRegistry.sol",
  "compiler": {
    "name": "solc",
    "version": "0.8.19+commit.7dd6d404.Emscripten.clang"
  },
  "schemaVersion": "3.4.16",
  "updatedAt": "2025-04-29T16:31:54.512Z",
  "networkType": "ethereum",
  "devdoc": {
    "kind": "dev",
    "methods": {},
    "version": 1
  },
  "userdoc": {
    "kind": "user",
    "methods": {},
    "version": 1
  }
}